{
  "_format": "hh-sol-artifact-1",
  "contractName": "MultisigFactory",
  "sourceName": "contracts/multisigFactoryContract.sol",
  "abi": [
    {
      "inputs": [
        {
          "internalType": "uint256",
          "name": "_quorum",
          "type": "uint256"
        },
        {
          "internalType": "address[]",
          "name": "_validSigners",
          "type": "address[]"
        }
      ],
      "name": "createMultisigWallet",
      "outputs": [
        {
          "internalType": "contract Multisig",
          "name": "newMulsig_",
          "type": "address"
        },
        {
          "internalType": "uint256",
          "name": "length_",
          "type": "uint256"
        }
      ],
      "stateMutability": "nonpayable",
      "type": "function"
    },
    {
      "inputs": [],
      "name": "getMultiSigClones",
      "outputs": [
        {
          "internalType": "contract Multisig[]",
          "name": "",
          "type": "address[]"
        }
      ],
      "stateMutability": "view",
      "type": "function"
    }
  ],
  "bytecode": "0x608060405234801561001057600080fd5b50613263806100206000396000f3fe60806040523480156200001157600080fd5b50600436106200003a5760003560e01c8063109dd5e9146200003f578063daebf2081462000061575b600080fd5b6200004962000098565b60405162000058919062000330565b60405180910390f35b6200007f60048036038101906200007991906200055d565b62000128565b6040516200008f929190620005e5565b60405180910390f35b606060008054806020026020016040519081016040528092919081815260200182805480156200011e57602002820191906000526020600020905b8160009054906101000a900473ffffffffffffffffffffffffffffffffffffffff1673ffffffffffffffffffffffffffffffffffffffff1681526020019060010190808311620000d3575b5050505050905090565b60008083836040516200013b90620001da565b62000148929190620006ed565b604051809103906000f08015801562000165573d6000803e3d6000fd5b5091506000829080600181540180825580915050600190039060005260206000200160009091909190916101000a81548173ffffffffffffffffffffffffffffffffffffffff021916908373ffffffffffffffffffffffffffffffffffffffff16021790555060008054905090509250929050565b612b0c806200072283390190565b600081519050919050565b600082825260208201905092915050565b6000819050602082019050919050565b600073ffffffffffffffffffffffffffffffffffffffff82169050919050565b6000819050919050565b60006200025f62000259620002538462000214565b62000234565b62000214565b9050919050565b600062000273826200023e565b9050919050565b6000620002878262000266565b9050919050565b62000299816200027a565b82525050565b6000620002ad83836200028e565b60208301905092915050565b6000602082019050919050565b6000620002d382620001e8565b620002df8185620001f3565b9350620002ec8362000204565b8060005b83811015620003235781516200030788826200029f565b97506200031483620002b9565b925050600181019050620002f0565b5085935050505092915050565b600060208201905081810360008301526200034c8184620002c6565b905092915050565b6000604051905090565b600080fd5b600080fd5b6000819050919050565b6200037d8162000368565b81146200038957600080fd5b50565b6000813590506200039d8162000372565b92915050565b600080fd5b6000601f19601f8301169050919050565b7f4e487b7100000000000000000000000000000000000000000000000000000000600052604160045260246000fd5b620003f382620003a8565b810181811067ffffffffffffffff82111715620004155762000414620003b9565b5b80604052505050565b60006200042a62000354565b9050620004388282620003e8565b919050565b600067ffffffffffffffff8211156200045b576200045a620003b9565b5b602082029050602081019050919050565b600080fd5b60006200047e8262000214565b9050919050565b620004908162000471565b81146200049c57600080fd5b50565b600081359050620004b08162000485565b92915050565b6000620004cd620004c7846200043d565b6200041e565b90508083825260208201905060208402830185811115620004f357620004f26200046c565b5b835b818110156200052057806200050b88826200049f565b845260208401935050602081019050620004f5565b5050509392505050565b600082601f830112620005425762000541620003a3565b5b813562000554848260208601620004b6565b91505092915050565b600080604083850312156200057757620005766200035e565b5b600062000587858286016200038c565b925050602083013567ffffffffffffffff811115620005ab57620005aa62000363565b5b620005b9858286016200052a565b9150509250929050565b620005ce816200027a565b82525050565b620005df8162000368565b82525050565b6000604082019050620005fc6000830185620005c3565b6200060b6020830184620005d4565b9392505050565b600060ff82169050919050565b6200062a8162000612565b82525050565b600081519050919050565b6000819050602082019050919050565b620006568162000471565b82525050565b60006200066a83836200064b565b60208301905092915050565b6000602082019050919050565b6000620006908262000630565b6200069c8185620001f3565b9350620006a9836200063b565b8060005b83811015620006e0578151620006c488826200065c565b9750620006d18362000676565b925050600181019050620006ad565b5085935050505092915050565b60006040820190506200070460008301856200061f565b818103602083015262000718818462000683565b9050939250505056fe60806040523480156200001157600080fd5b5060405162002b0c38038062002b0c83398181016040528101906200003791906200063d565b60018151116200007e576040517f08c379a0000000000000000000000000000000000000000000000000000000008152600401620000759062000704565b60405180910390fd5b60018260ff1611620000c7576040517f08c379a0000000000000000000000000000000000000000000000000000000008152600401620000be9062000776565b60405180910390fd5b60005b81518110156200029357600073ffffffffffffffffffffffffffffffffffffffff1682828151811062000102576200010162000798565b5b602002602001015173ffffffffffffffffffffffffffffffffffffffff160362000163576040517f08c379a00000000000000000000000000000000000000000000000000000000081526004016200015a9062000817565b60405180910390fd5b600360008383815181106200017d576200017c62000798565b5b602002602001015173ffffffffffffffffffffffffffffffffffffffff1673ffffffffffffffffffffffffffffffffffffffff16815260200190815260200160002060009054906101000a900460ff161562000210576040517f08c379a0000000000000000000000000000000000000000000000000000000008152600401620002079062000889565b60405180910390fd5b6001600360008484815181106200022c576200022b62000798565b5b602002602001015173ffffffffffffffffffffffffffffffffffffffff1673ffffffffffffffffffffffffffffffffffffffff16815260200190815260200160002060006101000a81548160ff0219169083151502179055508080600101915050620000ca565b508051600060016101000a81548160ff021916908360ff160217905550600360003373ffffffffffffffffffffffffffffffffffffffff1673ffffffffffffffffffffffffffffffffffffffff16815260200190815260200160002060009054906101000a900460ff1662000394576001600360003373ffffffffffffffffffffffffffffffffffffffff1673ffffffffffffffffffffffffffffffffffffffff16815260200190815260200160002060006101000a81548160ff0219169083151502179055506001600060018282829054906101000a900460ff166200037b9190620008da565b92506101000a81548160ff021916908360ff1602179055505b600060019054906101000a900460ff1660ff168260ff161115620003ef576040517f08c379a0000000000000000000000000000000000000000000000000000000008152600401620003e6906200098c565b60405180910390fd5b816000806101000a81548160ff021916908360ff1602179055505050620009ae565b6000604051905090565b600080fd5b600080fd5b600060ff82169050919050565b6200043d8162000425565b81146200044957600080fd5b50565b6000815190506200045d8162000432565b92915050565b600080fd5b6000601f19601f8301169050919050565b7f4e487b7100000000000000000000000000000000000000000000000000000000600052604160045260246000fd5b620004b38262000468565b810181811067ffffffffffffffff82111715620004d557620004d462000479565b5b80604052505050565b6000620004ea62000411565b9050620004f88282620004a8565b919050565b600067ffffffffffffffff8211156200051b576200051a62000479565b5b602082029050602081019050919050565b600080fd5b600073ffffffffffffffffffffffffffffffffffffffff82169050919050565b60006200055e8262000531565b9050919050565b620005708162000551565b81146200057c57600080fd5b50565b600081519050620005908162000565565b92915050565b6000620005ad620005a784620004fd565b620004de565b90508083825260208201905060208402830185811115620005d357620005d26200052c565b5b835b81811015620006005780620005eb88826200057f565b845260208401935050602081019050620005d5565b5050509392505050565b600082601f83011262000622576200062162000463565b5b81516200063484826020860162000596565b91505092915050565b600080604083850312156200065757620006566200041b565b5b600062000667858286016200044c565b925050602083015167ffffffffffffffff8111156200068b576200068a62000420565b5b62000699858286016200060a565b9150509250929050565b600082825260208201905092915050565b7f6665772076616c6964207369676e657273000000000000000000000000000000600082015250565b6000620006ec601183620006a3565b9150620006f982620006b4565b602082019050919050565b600060208201905081810360008301526200071f81620006dd565b9050919050565b7f71756f72756d20697320746f6f20736d616c6c00000000000000000000000000600082015250565b60006200075e601383620006a3565b91506200076b8262000726565b602082019050919050565b6000602082019050818103600083015262000791816200074f565b9050919050565b7f4e487b7100000000000000000000000000000000000000000000000000000000600052603260045260246000fd5b7f7a65726f2061646472657373206e6f7420616c6c6f7765640000000000000000600082015250565b6000620007ff601883620006a3565b91506200080c82620007c7565b602082019050919050565b600060208201905081810360008301526200083281620007f0565b9050919050565b7f7369676e657220616c7265616479206578697374000000000000000000000000600082015250565b600062000871601483620006a3565b91506200087e8262000839565b602082019050919050565b60006020820190508181036000830152620008a48162000862565b9050919050565b7f4e487b7100000000000000000000000000000000000000000000000000000000600052601160045260246000fd5b6000620008e78262000425565b9150620008f48362000425565b9250828201905060ff81111562000910576200090f620008ab565b5b92915050565b7f71756f72756d2067726561746572207468616e2076616c6964207369676e657260008201527f7300000000000000000000000000000000000000000000000000000000000000602082015250565b600062000974602183620006a3565b9150620009818262000916565b604082019050919050565b60006020820190508181036000830152620009a78162000965565b9050919050565b61214e80620009be6000396000f3fe608060405234801561001057600080fd5b50600436106100b45760003560e01c8063a87d942c11610071578063a87d942c1461017b578063b8c8933814610199578063ccb570e3146101c9578063d1da9a5d146101e5578063d40cfc5114610203578063d5f505821461021f576100b4565b80631703a018146100b957806317eff51b146100d7578063279814b5146100f55780632f430e17146101115780633c5406871461012d5780635952dd901461014b575b600080fd5b6100c161024f565b6040516100ce9190611712565b60405180910390f35b6100df610260565b6040516100ec9190611712565b60405180910390f35b61010f600480360381019061010a919061175e565b610273565b005b61012b6004803603810190610126919061175e565b610628565b005b610135610b63565b60405161014291906117a4565b60405180910390f35b61016560048036038101906101609190611849565b610b69565b60405161017291906118a4565b60405180910390f35b610183610b98565b60405161019091906117a4565b60405180910390f35b6101b360048036038101906101ae91906118bf565b610ba2565b6040516101c09190611a8d565b60405180910390f35b6101e360048036038101906101de9190611aaf565b610da3565b005b6101ed6112cd565b6040516101fa9190611712565b60405180910390f35b61021d6004803603810190610218919061175e565b6112e0565b005b61023960048036038101906102349190611b02565b611646565b60405161024691906118a4565b60405180910390f35b60008054906101000a900460ff1681565b600060019054906101000a900460ff1681565b6000600460008360ff168152602001908152602001600020905060008160000154036102d4576040517f08c379a00000000000000000000000000000000000000000000000000000000081526004016102cb90611b8c565b60405180910390fd5b8060030160149054906101000a900460ff1615610326576040517f08c379a000000000000000000000000000000000000000000000000000000000815260040161031d90611bf8565b60405180910390fd5b60008054906101000a900460ff1660ff1681600501541061037c576040517f08c379a000000000000000000000000000000000000000000000000000000000815260040161037390611c64565b60405180910390fd5b600360003373ffffffffffffffffffffffffffffffffffffffff1673ffffffffffffffffffffffffffffffffffffffff16815260200190815260200160002060009054906101000a900460ff16610408576040517f08c379a00000000000000000000000000000000000000000000000000000000081526004016103ff90611cd0565b60405180910390fd5b600560003373ffffffffffffffffffffffffffffffffffffffff1673ffffffffffffffffffffffffffffffffffffffff16815260200190815260200160002060008360ff16815260200190815260200160002060009054906101000a900460ff16156104a9576040517f08c379a00000000000000000000000000000000000000000000000000000000081526004016104a090611d3c565b60405180910390fd5b6001600560003373ffffffffffffffffffffffffffffffffffffffff1673ffffffffffffffffffffffffffffffffffffffff16815260200190815260200160002060008460ff16815260200190815260200160002060006101000a81548160ff021916908315150217905550600181600501600082825461052a9190611d8b565b9250508190555080600701339080600181540180825580915050600190039060005260206000200160009091909190916101000a81548173ffffffffffffffffffffffffffffffffffffffff021916908373ffffffffffffffffffffffffffffffffffffffff16021790555060008054906101000a900460ff1660ff168160050154036105f85760018160030160146101000a81548160ff021916908315150217905550600260009054906101000a900460ff166000806101000a81548160ff021916908360ff1602179055505b7fced046dbbcf9ae28eab3eab7e39e4d7cbb771d326d9d9609d7e1b4be8edd155760405160405180910390a15050565b6000600460008360ff16815260200190815260200160002090506000816000015403610689576040517f08c379a000000000000000000000000000000000000000000000000000000000815260040161068090611b8c565b60405180910390fd5b80600101548160060160009054906101000a900473ffffffffffffffffffffffffffffffffffffffff1673ffffffffffffffffffffffffffffffffffffffff166370a08231306040518263ffffffff1660e01b81526004016106eb9190611dce565b602060405180830381865afa158015610708573d6000803e3d6000fd5b505050506040513d601f19601f8201168201806040525081019061072c9190611dfe565b101561076d576040517f08c379a000000000000000000000000000000000000000000000000000000000815260040161076490611e77565b60405180910390fd5b8060030160149054906101000a900460ff16156107bf576040517f08c379a00000000000000000000000000000000000000000000000000000000081526004016107b690611bf8565b60405180910390fd5b60008054906101000a900460ff1660ff16816005015410610815576040517f08c379a000000000000000000000000000000000000000000000000000000000815260040161080c90611c64565b60405180910390fd5b600360003373ffffffffffffffffffffffffffffffffffffffff1673ffffffffffffffffffffffffffffffffffffffff16815260200190815260200160002060009054906101000a900460ff166108a1576040517f08c379a000000000000000000000000000000000000000000000000000000000815260040161089890611cd0565b60405180910390fd5b600560003373ffffffffffffffffffffffffffffffffffffffff1673ffffffffffffffffffffffffffffffffffffffff16815260200190815260200160002060008360ff16815260200190815260200160002060009054906101000a900460ff1615610942576040517f08c379a000000000000000000000000000000000000000000000000000000000815260040161093990611d3c565b60405180910390fd5b6001600560003373ffffffffffffffffffffffffffffffffffffffff1673ffffffffffffffffffffffffffffffffffffffff16815260200190815260200160002060008460ff16815260200190815260200160002060006101000a81548160ff02191690831515021790555060018160050160008282546109c39190611d8b565b9250508190555080600701339080600181540180825580915050600190039060005260206000200160009091909190916101000a81548173ffffffffffffffffffffffffffffffffffffffff021916908373ffffffffffffffffffffffffffffffffffffffff16021790555060008054906101000a900460ff1660ff16816005015403610b335760018160030160146101000a81548160ff0219169083151502179055508060060160009054906101000a900473ffffffffffffffffffffffffffffffffffffffff1673ffffffffffffffffffffffffffffffffffffffff1663a9059cbb8260030160009054906101000a900473ffffffffffffffffffffffffffffffffffffffff1683600101546040518363ffffffff1660e01b8152600401610aee929190611e97565b6020604051808303816000875af1158015610b0d573d6000803e3d6000fd5b505050506040513d601f19601f82011682018060405250810190610b319190611eec565b505b7f306e07835529ef33c6c28418d291827acbdfb8414149807b7bfa3cf45860e7c660405160405180910390a15050565b60015481565b60056020528160005260406000206020528060005260406000206000915091509054906101000a900460ff1681565b6000600154905090565b610baa611666565b600460008381526020019081526020016000206040518061012001604052908160008201548152602001600182015481526020016002820160009054906101000a900473ffffffffffffffffffffffffffffffffffffffff1673ffffffffffffffffffffffffffffffffffffffff1673ffffffffffffffffffffffffffffffffffffffff1681526020016003820160009054906101000a900473ffffffffffffffffffffffffffffffffffffffff1673ffffffffffffffffffffffffffffffffffffffff1673ffffffffffffffffffffffffffffffffffffffff1681526020016003820160149054906101000a900460ff1615151515815260200160048201548152602001600582015481526020016006820160009054906101000a900473ffffffffffffffffffffffffffffffffffffffff1673ffffffffffffffffffffffffffffffffffffffff1673ffffffffffffffffffffffffffffffffffffffff16815260200160078201805480602002602001604051908101604052809291908181526020018280548015610d9357602002820191906000526020600020905b8160009054906101000a900473ffffffffffffffffffffffffffffffffffffffff1673ffffffffffffffffffffffffffffffffffffffff1681526020019060010190808311610d49575b5050505050815250509050919050565b600073ffffffffffffffffffffffffffffffffffffffff163373ffffffffffffffffffffffffffffffffffffffff1603610e12576040517f08c379a0000000000000000000000000000000000000000000000000000000008152600401610e0990611f65565b60405180910390fd5b600360003373ffffffffffffffffffffffffffffffffffffffff1673ffffffffffffffffffffffffffffffffffffffff16815260200190815260200160002060009054906101000a900460ff16610e9e576040517f08c379a0000000000000000000000000000000000000000000000000000000008152600401610e9590611fd1565b60405180910390fd5b60008311610ee1576040517f08c379a0000000000000000000000000000000000000000000000000000000008152600401610ed89061203d565b60405180910390fd5b600073ffffffffffffffffffffffffffffffffffffffff168273ffffffffffffffffffffffffffffffffffffffff1603610f50576040517f08c379a0000000000000000000000000000000000000000000000000000000008152600401610f4790611f65565b60405180910390fd5b600073ffffffffffffffffffffffffffffffffffffffff168173ffffffffffffffffffffffffffffffffffffffff1603610fbf576040517f08c379a0000000000000000000000000000000000000000000000000000000008152600401610fb690611f65565b60405180910390fd5b828173ffffffffffffffffffffffffffffffffffffffff166370a08231306040518263ffffffff1660e01b8152600401610ff99190611dce565b602060405180830381865afa158015611016573d6000803e3d6000fd5b505050506040513d601f19601f8201168201806040525081019061103a9190611dfe565b101561107b576040517f08c379a000000000000000000000000000000000000000000000000000000000815260040161107290611e77565b60405180910390fd5b60006001805461108b9190611d8b565b90506000600460008381526020019081526020016000209050818160000181905550848160010181905550838160030160006101000a81548173ffffffffffffffffffffffffffffffffffffffff021916908373ffffffffffffffffffffffffffffffffffffffff160217905550338160020160006101000a81548173ffffffffffffffffffffffffffffffffffffffff021916908373ffffffffffffffffffffffffffffffffffffffff160217905550428160040181905550828160060160006101000a81548173ffffffffffffffffffffffffffffffffffffffff021916908373ffffffffffffffffffffffffffffffffffffffff160217905550600181600501600082825461119d9190611d8b565b9250508190555080600701339080600181540180825580915050600190039060005260206000200160009091909190916101000a81548173ffffffffffffffffffffffffffffffffffffffff021916908373ffffffffffffffffffffffffffffffffffffffff1602179055506001600560003373ffffffffffffffffffffffffffffffffffffffff1673ffffffffffffffffffffffffffffffffffffffff168152602001908152602001600020600084815260200190815260200160002060006101000a81548160ff02191690831515021790555060018060008282546112849190611d8b565b925050819055507ff79623f82794e227a59f41cee5ae7ea4c8c8b5f81c6add49628ce1c12ecf7534600154836040516112be92919061205d565b60405180910390a15050505050565b600260009054906101000a900460ff1681565b600073ffffffffffffffffffffffffffffffffffffffff163373ffffffffffffffffffffffffffffffffffffffff160361134f576040517f08c379a000000000000000000000000000000000000000000000000000000000815260040161134690611f65565b60405180910390fd5b600360003373ffffffffffffffffffffffffffffffffffffffff1673ffffffffffffffffffffffffffffffffffffffff16815260200190815260200160002060009054906101000a900460ff166113db576040517f08c379a00000000000000000000000000000000000000000000000000000000081526004016113d290611fd1565b60405180910390fd5b60008160ff1611611421576040517f08c379a00000000000000000000000000000000000000000000000000000000081526004016114189061203d565b60405180910390fd5b600060019054906101000a900460ff1660ff168160ff161115611479576040517f08c379a0000000000000000000000000000000000000000000000000000000008152600401611470906120f8565b60405180910390fd5b6000600180546114899190611d8b565b90506000600460008381526020019081526020016000209050818160000181905550338160020160006101000a81548173ffffffffffffffffffffffffffffffffffffffff021916908373ffffffffffffffffffffffffffffffffffffffff160217905550428160040181905550600181600501600082825461150c9190611d8b565b9250508190555080600701339080600181540180825580915050600190039060005260206000200160009091909190916101000a81548173ffffffffffffffffffffffffffffffffffffffff021916908373ffffffffffffffffffffffffffffffffffffffff1602179055506001600560003373ffffffffffffffffffffffffffffffffffffffff1673ffffffffffffffffffffffffffffffffffffffff168152602001908152602001600020600084815260200190815260200160002060006101000a81548160ff02191690831515021790555060018060008282546115f39190611d8b565b9250508190555082600260006101000a81548160ff021916908360ff1602179055507fc43a8dbf8a1de33b748708610d59eb761aa5dc92973b1049160afd160b022a7960405160405180910390a1505050565b60036020528060005260406000206000915054906101000a900460ff1681565b6040518061012001604052806000815260200160008152602001600073ffffffffffffffffffffffffffffffffffffffff168152602001600073ffffffffffffffffffffffffffffffffffffffff1681526020016000151581526020016000815260200160008152602001600073ffffffffffffffffffffffffffffffffffffffff168152602001606081525090565b600060ff82169050919050565b61170c816116f6565b82525050565b60006020820190506117276000830184611703565b92915050565b600080fd5b61173b816116f6565b811461174657600080fd5b50565b60008135905061175881611732565b92915050565b6000602082840312156117745761177361172d565b5b600061178284828501611749565b91505092915050565b6000819050919050565b61179e8161178b565b82525050565b60006020820190506117b96000830184611795565b92915050565b600073ffffffffffffffffffffffffffffffffffffffff82169050919050565b60006117ea826117bf565b9050919050565b6117fa816117df565b811461180557600080fd5b50565b600081359050611817816117f1565b92915050565b6118268161178b565b811461183157600080fd5b50565b6000813590506118438161181d565b92915050565b600080604083850312156118605761185f61172d565b5b600061186e85828601611808565b925050602061187f85828601611834565b9150509250929050565b60008115159050919050565b61189e81611889565b82525050565b60006020820190506118b96000830184611895565b92915050565b6000602082840312156118d5576118d461172d565b5b60006118e384828501611834565b91505092915050565b6118f58161178b565b82525050565b611904816117df565b82525050565b61191381611889565b82525050565b600081519050919050565b600082825260208201905092915050565b6000819050602082019050919050565b600061195183836118fb565b60208301905092915050565b6000602082019050919050565b600061197582611919565b61197f8185611924565b935061198a83611935565b8060005b838110156119bb5781516119a28882611945565b97506119ad8361195d565b92505060018101905061198e565b5085935050505092915050565b6000610120830160008301516119e160008601826118ec565b5060208301516119f460208601826118ec565b506040830151611a0760408601826118fb565b506060830151611a1a60608601826118fb565b506080830151611a2d608086018261190a565b5060a0830151611a4060a08601826118ec565b5060c0830151611a5360c08601826118ec565b5060e0830151611a6660e08601826118fb565b50610100830151848203610100860152611a80828261196a565b9150508091505092915050565b60006020820190508181036000830152611aa781846119c8565b905092915050565b600080600060608486031215611ac857611ac761172d565b5b6000611ad686828701611834565b9350506020611ae786828701611808565b9250506040611af886828701611808565b9150509250925092565b600060208284031215611b1857611b1761172d565b5b6000611b2684828501611808565b91505092915050565b600082825260208201905092915050565b7f696e76616c696420747820696400000000000000000000000000000000000000600082015250565b6000611b76600d83611b2f565b9150611b8182611b40565b602082019050919050565b60006020820190508181036000830152611ba581611b69565b9050919050565b7f7472616e73616374696f6e20616c726561647920636f6d706c65746564000000600082015250565b6000611be2601d83611b2f565b9150611bed82611bac565b602082019050919050565b60006020820190508181036000830152611c1181611bd5565b9050919050565b7f617070726f76616c7320616c7265616479207265616368656400000000000000600082015250565b6000611c4e601983611b2f565b9150611c5982611c18565b602082019050919050565b60006020820190508181036000830152611c7d81611c41565b9050919050565b7f6e6f7420612076616c6964207369676e65720000000000000000000000000000600082015250565b6000611cba601283611b2f565b9150611cc582611c84565b602082019050919050565b60006020820190508181036000830152611ce981611cad565b9050919050565b7f63616e2774207369676e20747769636500000000000000000000000000000000600082015250565b6000611d26601083611b2f565b9150611d3182611cf0565b602082019050919050565b60006020820190508181036000830152611d5581611d19565b9050919050565b7f4e487b7100000000000000000000000000000000000000000000000000000000600052601160045260246000fd5b6000611d968261178b565b9150611da18361178b565b9250828201905080821115611db957611db8611d5c565b5b92915050565b611dc8816117df565b82525050565b6000602082019050611de36000830184611dbf565b92915050565b600081519050611df88161181d565b92915050565b600060208284031215611e1457611e1361172d565b5b6000611e2284828501611de9565b91505092915050565b7f696e73756666696369656e742066756e64730000000000000000000000000000600082015250565b6000611e61601283611b2f565b9150611e6c82611e2b565b602082019050919050565b60006020820190508181036000830152611e9081611e54565b9050919050565b6000604082019050611eac6000830185611dbf565b611eb96020830184611795565b9392505050565b611ec981611889565b8114611ed457600080fd5b50565b600081519050611ee681611ec0565b92915050565b600060208284031215611f0257611f0161172d565b5b6000611f1084828501611ed7565b91505092915050565b7f61646472657373207a65726f20666f756e640000000000000000000000000000600082015250565b6000611f4f601283611b2f565b9150611f5a82611f19565b602082019050919050565b60006020820190508181036000830152611f7e81611f42565b9050919050565b7f696e76616c6964207369676e6572000000000000000000000000000000000000600082015250565b6000611fbb600e83611b2f565b9150611fc682611f85565b602082019050919050565b60006020820190508181036000830152611fea81611fae565b9050919050565b7f63616e27742073656e64207a65726f20616d6f756e7400000000000000000000600082015250565b6000612027601683611b2f565b915061203282611ff1565b602082019050919050565b600060208201905081810360008301526120568161201a565b9050919050565b60006040820190506120726000830185611795565b61207f6020830184611795565b9392505050565b7f71756f72756d2073686f756c64206265206c657373207468616e2076616c696460008201527f207369676e657273000000000000000000000000000000000000000000000000602082015250565b60006120e2602883611b2f565b91506120ed82612086565b604082019050919050565b60006020820190508181036000830152612111816120d5565b905091905056fea2646970667358221220b5f6ccc868e69c7d1870b17a1c641caaa7be096756d3dd63c9424a3a45bc4f0c64736f6c63430008180033a264697066735822122044fe44bd0fbb09e0dda3ef545afa27af578702621e73770d8fd541492867474864736f6c63430008180033",
  "linkReferences": {},
  "deployedLinkReferences": {}
}